:1000000080C000009EC000009CC000009AC000009C
:1000100098C0000096C0000094C0000092C000008C
:1000200090C000008EC0000053C600008AC00000CF
:1000300088C0000081C6000084C000000C94D10B71
:1000400080C000007EC000007CC000007AC00000BC
:1000500078C0000076C0000074C0000072C00000CC
:1000600070C000000C94310B6CC000006AC000002E
:1000700068C000000C94030D64C0000062C0000062
:100080000C94351E0C944B1E5CC000000C949E1DFD
:1000900058C0000056C0000054C0000052C000000C
:1000A00050C000004EC000000C94721D0C94881DBE
:1000B00048C000000C94D11C44C0000042C00000A5
:1000C00040C000003EC000003CC000003AC000003C
:1000D00038C0000036C0000034C0000032C000004C
:1000E00030C0000005A84CCDB2D44EB93836A902B4
:1000F0000C50B9918688083CA6AAAA2ABE00000026
:10010000803F11241FBECFEFD1E2DEBFCDBF00E0A4
:100110000CBF12E0A0E0B2E0ECECFFE700E00BBFA8
:1001200002C007900D92A631B107D9F71AE0A6E1F7
:10013000B2E001C01D92AD31B107E1F703D00C94DC
:10014000E43F5ECF8F929F92AF92BF92CF92DF92A9
:10015000FF920F931F93CF93DF930E94210C0E9475
:10016000E0290E94DB0B9B01AC0160932E033093CE
:100170002F034093300350933103109232031092B7
:10018000330310923403109235030E94DB0B5B01A2
:100190006C010E94DB0B6A197B098C099D0965546F
:1001A0007B4080409040A8F30E94942B0E94DB0B80
:1001B0005B016C01209194003091950080912402A4
:1001C000909125024091340250913502820F931F85
:1001D000840F951F0E94823F0E947F3F60E071E084
:1001E0000E94DA3E4C0110E0C0E0D0E0FF2411C0D4
:1001F0000E94FA3B11E0CFE0D0E0FF24F3940E948C
:10020000D4278C2F0E949A138C2F0E94CD130E940A
:10021000611E3DD1112361F3113029F0FF2079F7E0
:100220000E94D827EECF0E945A310E94A13081301F
:1002300099F00E94A930082F8130B1F00E94DB0BA9
:100240006A197B098C099D096D5C7B4B804090404D
:1002500028F310921602CECF882D0E9498300E946B
:10026000A930082F813051F70E94DB0B5B016C0134
:100270000E94AC3090E090938F0380938E0388159A
:100280009905E1F200931602C0E0D0E0FF24D6CF3A
:1002900084B1807F84B984B1876084B980E58CBDE6
:1002A0008DB581608DBD08951CBC1DBC0895482F7F
:1002B0006623E9F09C01F90180818EBD2091050340
:1002C00081E090E00DB407FC09C0019637E280316F
:1002D0009307C0F321E00DB407FEF7CF2093050389
:1002E000222329F431968E2F841B861728F3089534
:1002F000CF93DF93EC01442321F1A0E0B0E0FE01B5
:10030000EA0FFB1F80818EBD8091050321E030E064
:100310000DB407FC0AC02F5F3F4F97E22031390729
:10032000B8F381E00DB407FEF6CF80930503882370
:1003300041F48EB5FB01EA0FFB1F80831196A417D1
:10034000F0F2DF91CF9108958EBD2091050381E0F9
:1003500090E00DB407FC09C0019637E280319307A5
:10036000C0F321E00DB407FEF7CF209305038EB54F
:100370000895FF920F931F93CF93DF93082FF92EC9
:10038000162F289881EEE0DF289A289888EADCDF8B
:10039000112351F0802F9F2D9C01E9018991D4DF19
:1003A0009E01201B2117D0F3289ADF91CF911F9136
:1003B0000F91FF9008950F931F93DF93CF9300D079
:1003C000CDB7DEB7289880E2BFDF8DE0BDDF289A89
:1003D000289883E2B9DF81E0B7DF289A8091020391
:1003E0009091030399838A831B82289880E3ACDF72
:1003F0008E010F5F1F4FC80163E059DF289A2898CC
:100400008AE2A2DFC80163E052DF289A289881E2DD
:100410009BDF81E099DF289A289882E295DF81E0CE
:1004200093DF289A289884E28FDF82E18DDF289A73
:10043000289885E289DF88E287DF289A289881E377
:1004400083DF8DE081DF289A289880E57DDF83E7D0
:100450007BDF289A28988CE377DF81E075DF289A84
:1004600028988DE371DF86E06FDF289A289880E274
:100470006BDF8FE069DF289A0F900F900F90CF917C
:10048000DF911F910F9108952C9A289A94CF0F9382
:100490001F93DF93CF930F92CDB7DEB78091D50333
:1004A000882331F00F90CF91DF911F910F91089524
:1004B00028988FEF49DF289A86FFF4CF80910403B4
:1004C000826080930403289887E23EDF80E73CDF68
:1004D000289A1982289887E137DFBE016F5F7F4F26
:1004E000CB0141E005DF289A898180FDDBCF289888
:1004F00081E62ADF8AE298E0BC014DE0F9DE289A25
:10050000289887E221DF80E41FDF289A289882EE6E
:100510001BDF289A80910603813009F47EC2809106
:100520002A088823B9F480912B08882399F48091B4
:100530002C08882379F480912D08883059F4809113
:100540002E08882339F480912F08882319F48CE32E
:100550000E947A0C80910E04882341F580912E0828
:10056000282F30E02F773070309301032093000361
:1005700060912F08462F50E04F7750705093FF0244
:100580004093FE0287FD15C288279927821B930B93
:100590009093E7028093E60267FD75C38827992749
:1005A000841B950B9093E9028093E80220912A081E
:1005B00030E03093130820931208E0912B08F0E00C
:1005C000F0931508E093140800912C0810E01093A4
:1005D000170800931608922F8827821B930B64E656
:1005E00070E00E94C63E262F209520930C029E2F7D
:1005F00088278E1B9F0B64E670E00E94C63E6095C4
:1006000060930E02902F8827801B910B64E670E0A8
:100610000E94C63E609560930D02822F0E94082AB8
:1006200080910D020E941E2A80910E020E94342A9F
:1006300020912D08922F20FFFFC0449891FF2AC1DE
:10064000459892FF24C181E08093100294FDD4C1AB
:1006500096FF1AC181E080933B0327FDD4C110921D
:100660003C038091300880FF09C180910B018E7F8F
:1006700080930B018091300881FFFAC080910B01BB
:100680008D7F80930B018091300882FFEBC08091B9
:100690000B018B7F80930B018091300883FFE0C0BA
:1006A000A3988091300884FFD5C080910B018F7E84
:1006B00080930B018091300885FFC6C080910B01AB
:1006C0008F7D80930B018091300886FFB7C08091A9
:1006D0000B018F7B80930B018091300887FD97C1C0
:1006E00080910B01806880930B0180912A038830F0
:1006F00009F464C180910B0280936207853009F48C
:1007000066C2863008F0C8C0833009F4E0C1843086
:1007100009F054C080915A0290915B028093630764
:10072000892F990F990B80936407809162029091B1
:10073000630280936507892F990F990B8093660751
:10074000809164029091650280936707892F990FC9
:10075000990B80936807809166029091670280935D
:100760006907892F990F990B80936A078091680216
:100770009091690280936B07892F990F990B809351
:100780006C0780910E0390910F0380936D07892F62
:10079000990F990B80936E0780911003909111032C
:1007A00080936F07892F990F990B80937007809121
:1007B0000B038093710785E080930B02289881EEEC
:1007C000C3DD289A289888EABFDD80916207BCDDE6
:1007D00080916307B9DD80916407B6DD809165077C
:1007E000B3DD80916607B0DD80916707ADDD809154
:1007F0006807AADD80916907A7DD80916A07A4DDFB
:1008000080916B07A1DD80916C079EDD80916D0763
:100810009BDD80916E0798DD80916F0795DD80915B
:10082000700792DD809171078FDD289A0F90CF912C
:10083000DF911F910F910895449A00CF80910B0191
:10084000806480930B0148CF80910B01806280937C
:100850000B0139CF80910B01806180930B012ACF6E
:10086000A39A1FCF80910B01846080930B0114CF5A
:1008700080910B01826080930B0105CF80910B0169
:10088000816080930B01F6CE10923B03E6CE10926E
:100890001002DCCE459AD5CE863009F4C3C087302D
:1008A00009F08CCF6091CE027091CF028091D0027E
:1008B0009091D1020E94023D60936307272F382F49
:1008C000492F552747FD5A95209364079C015527CA
:1008D00037FD5095452F20936507692F992767FDB0
:1008E0009095792F892F609366076091CA02709165
:1008F000CB028091CC029091CD020E94023D609388
:100900006707272F382F492F552747FD5A952093E2
:1009100068079C01552737FD5095452F209369079F
:10092000692F992767FD9095792F892F60936A0722
:1009300060913E0370913F03809140039091410389
:100940006093420370934303809344039093450361
:1009500020E030E44FE054E40E941F3E0E94023D3C
:1009600060936B07672F770F770B60936C0760912D
:1009700046037091470380914803909149030E9478
:10098000073D60936D0770936E0760914A03709105
:100990004B0380914C0390914D030E94073D60935F
:1009A0006F07709370071092710783E080930B02BA
:1009B00005CF3093E7022093E602EECD80910E043E
:1009C000882309F097CE8091310880FF93CE0E9452
:1009D000942B8FEF93E09093630280936202909345
:1009E00069028093680286E08093010A81E0809327
:1009F0005B0780930E047ECE0E94942BE5D6209157
:100A00002D08922F25CE81E080933C032ACE809141
:100A10000B018F7780930B0168CE82E697E060E14F
:100A2000A8DC40CD8091320290913302809363071D
:100A30008091320290913302909364078091420238
:100A40009091430280936507809142029091430206
:100A500090936607809146029091470280936707C2
:100A600080914602909147029093680780914A02D4
:100A700090914B028093690780914A0290914B02BA
:100A800090936A0780914E0290914F0280936B077A
:100A900080914E0290914F0290936C0780911203C7
:100AA0009091130380936D07892F990F990B809371
:100AB0006E078091B6029091B70280936F07909372
:100AC00070071092710787E080930B0277CE8091B8
:100AD00052029091530280936307892F990F990BCB
:100AE000809364078091540290915502809365072A
:100AF000892F990F990B80936607809156029091E8
:100B0000570280936707892F990F990B8093680785
:100B1000809158029091590280936907892F990F0B
:100B2000990B80936A0780915C0290915D0280939B
:100B30006B07892F990F990B80936C0780915E0248
:100B400090915F0280936D07892F990F990B809385
:100B50006E07809160029091610280936F07892FE8
:100B6000990F990B809370072091030180910301E5
:100B70004091030190E080729070959587959595CE
:100B80008795959587959595879595958795880FE0
:100B9000991F441F4427441F440F440F482B30E043
:100BA0002071307035952795359527953595279582
:100BB00035952795422B80911602882309F468C049
:100BC00048604093710784E080930B02F7CD8091D9
:100BD00022029091230280936307809122029091D8
:100BE00023029093640780912602909127028093BC
:100BF0006507809126029091270290936607809165
:100C00002A0290912B028093670780912A0290918B
:100C10002B029093680780912E0290912F0280936F
:100C2000690780912E0290912F0290936A0780911C
:100C300036029091370280936B0780913602909133
:100C4000370290936C0780913A0290913B02809317
:100C50006D0780913A0290913B0290936E078091CC
:100C60003E0290913F0280936F0780913E029091E7
:100C70003F029093700780912A038093710786E06A
:100C800080930B029BCD5093E9024093E8028ECCF7
:100C9000477F4093710797CFCF93DF93E8E6F0E06B
:100CA0001082ACE6B0E01C9220EB30E0E901188243
:100CB0001092B100109270008081826080838C91CC
:100CC00080688C93888182608883DF91CF910895BA
:100CD0001F920F920FB60F9211248F9380911002E2
:100CE000882321F18091030186FD20C08091680056
:100CF0008D7F8093680080916C008F7780936C006B
:100D000081E0809311028DE08093B3008091B10067
:100D100086608093B1008091700082608093700043
:100D20001092190210921A0210921B028F910F90CA
:100D30000FBE0F901F9018951F920F920FB60F9233
:100D400011242F933F934F935F938F939F938091A1
:100D5000B100887F8093B10080911102882359F1FE
:100D60008091030186FD69C01092110283E3809394
:100D7000B3008091B10086608093B10080917000D3
:100D800082608093700080910502909106022FEF9F
:100D90008F3F920729F001969093060280930502F7
:100DA0009F918F915F914F913F912F910F900FBE27
:100DB0000F901F90189540910502509106028FEFF9
:100DC0004F3F580709F44AC04130510509F480C02B
:100DD000CA010297059708F450C0CA010797069701
:100DE00008F0ABC086E38093B3008091B1008660C9
:100DF0008093B10080917000826080937000209198
:100E0000030130E0207430700024220F331F001CD7
:100E1000220F331F001C232F302D8CE090E0841B09
:100E2000950B02C0220F331F8A95E2F780911902B9
:100E3000820F80931902CA01AECF80916800826050
:100E40008093680080916C00806880936C008FEFC5
:100E50009FEF9093060280930502A2CF8091030139
:100E600086FF54C080916800826080936800809102
:100E70006C00806880936C0093CF86E38093B3000E
:100E80008091B10086608093B10080917000826093
:100E9000809370002091030130E0207430700024B2
:100EA000220F331F001C220F331F001C232F302D55
:100EB00086E090E0841B950B02C0220F331F8A95B9
:100EC000E2F780911A02820F80931A02CA0163CF5F
:100ED0008091030190E080749070082E892F000C9F
:100EE000881F990B000C881F991F80931B0286E3B3
:100EF0008093B3008091B10086608093B1008091AF
:100F00007000826080937000CA0145CF8CE18093AD
:100F1000B3008091B10086608093B1008091700031
:100F20008260809370001092190210921A0210923F
:100F30001B0240E050E0CA012ECF4D30510509F0B0
:100F40007ACF109270008091680082608093680070
:100F500080916C00806880936C008FEF9FEF90937E
:100F600006028093050280911B0280930402809107
:100F70001A0280931702809119028093180281E06F
:100F800080930C030DCFEF92FF920F931F93CF939B
:100F9000DF93EC0188819981892B09F4B2C0E0903C
:100FA000C709F090C809F0926107E09260072881B4
:100FB000398137FDE4C08091E0029091E102281B65
:100FC000390B3093C8092093C709F9012091F80221
:100FD0003091F9022E0F3F1F3093F9022093F8024F
:100FE00086E0213438070CF4ADC080E496E090939D
:100FF000F9028093F80220E436E008811981C901E2
:10100000880F991F820F931FAC01662757FD6095CB
:10101000762FCF01880F991F9F01220F331F220FB8
:10102000331F220F331F820F931FAA2797FDA0950E
:10103000BA2F480F591F6A1F7B1FEE19FF09EE0FC9
:10104000FF1FCF01AA2797FDA095BA2F480F591F60
:101050006A1F7B1FC801880F991F880F991F880F6F
:10106000991FAA2797FDA095BA2F480F591F6A1FED
:101070007B1F4093EE025093EF026093F002709357
:10108000F10277FD6DC0141615061606170614F446
:1010900017FD68C0415C5D45604070400CF480C045
:1010A00080EC9DE5A0E0B0E08093EE029093EF022B
:1010B000A093F002B093F10224E0B595A79597951F
:1010C00087952A95D1F79C01998388838091D602D0
:1010D0009091D702181619060CF05DC0C90101964F
:1010E0009983888322E080309207F4F08FEF91E0BB
:1010F00099838883DF91CF911F910F91FF90EF909B
:1011000008951092F9021092F8021092C8091092F4
:10111000C7091092610710926007DF91CF911F916C
:101120000F91FF90EF90089581509E4F1CF781E042
:101130009EEF99838883DF91CF911F910F91FF904C
:10114000EF90089589EF203C38070CF056CF80ECE3
:1011500099EF9093F9028093F80220EC39EF4DCF8C
:1011600017FD98CF1092EE021092EF021092F0024B
:101170001092F10280E090E0A0E0B0E09DCF80917D
:10118000E0029091E102280F391F3093C8092093A3
:10119000C709F9011BCFC901019799838883A2CFA1
:1011A0008091EE029091EF02A091F002B091F102D5
:1011B000803422EA92072FEFA2072FEFB2070CF03C
:1011C0007BCF80E492EAAFEFBFEF8093EE02909383
:1011D000EF02A093F002B093F1026ECFEF92FF9274
:1011E0000F931F93CF93DF93EC0188819981892B13
:1011F00009F4B2C0E0901304F0901404F0922908AE
:10120000E09228082881398137FDE4C08091DE0210
:101210009091DF02281B390B3093140420931304A0
:10122000F9012091F6023091F7022E0F3F1F309303
:10123000F7022093F60286E0213438070CF4ADC0A3
:1012400080E496E09093F7028093F60220E436E083
:1012500008811981C901880F991F820F931FAC0162
:10126000662757FD6095762FCF01880F991F9F0144
:10127000220F331F220F331F220F331F820F931FA2
:10128000AA2797FDA095BA2F480F591F6A1F7B1FE9
:10129000EE19FF09EE0FFF1FCF01AA2797FDA095BA
:1012A000BA2F480F591F6A1F7B1FC801880F991F4B
:1012B000880F991F880F991FAA2797FDA095BA2F0D
:1012C000480F591F6A1F7B1F4093F2025093F3028D
:1012D0006093F4027093F50277FD6DC01416150645
:1012E0001606170614F417FD68C0415C5D456040A2
:1012F00070400CF480C080EC9DE5A0E0B0E08093ED
:10130000F2029093F302A093F402B093F50254E03A
:10131000B595A795979587955A95D1F79C0199838F
:1013200088838091D8029091D902181619060CF082
:101330005DC0C90101969983888322E080309207BD
:10134000F4F08FEF91E099838883DF91CF911F9123
:101350000F91FF90EF9008951092F7021092F6020D
:101360001092140410921304109229081092280865
:10137000DF91CF911F910F91FF90EF9008958150D1
:101380009E4F1CF781E09EEF99838883DF91CF9178
:101390001F910F91FF90EF90089589EF203C38073F
:1013A0000CF056CF80EC99EF9093F7028093F60201
:1013B00020EC39EF4DCF17FD98CF1092F20210922A
:1013C000F3021092F4021092F50280E090E0A0E0A7
:1013D000B0E09DCF8091DE029091DF02280F391F8F
:1013E0003093140420931304F9011BCFC901019712
:1013F00099838883A2CF8091F2029091F302A09109
:10140000F402B091F502803422EA92072FEFA2078E
:101410002FEFB2070CF07BCF80E492EAAFEFBFEF83
:101420008093F2029093F302A093F402B093F5023A
:101430006ECF85B7806185BF2FEF21B912B887EFD6
:1014400084B980EE85B980EF87B980EB88B98CEFDD
:101450008AB983E08BB92DB91EB810BA23BB90911D
:101460002D03992399F414BA2093010110920201DB
:101470008FE0809304018091050110920501109284
:10148000070120930A0110920B010895913089F40D
:1014900014BA20930101109202018FE0809304019D
:1014A000809305011092070120930A0110920B010D
:1014B0000895923099F488E084BB20930101109242
:1014C00002018FE0809304018093050110920701CF
:1014D00020930A0187EF80930B0108952093010167
:1014E000109202018FE08093040110920701209373
:1014F0000A01992341F2913031F2923059F3089563
:101500001092B8001092BC000895589A599A1092FF
:10151000B90081E08093B8000895982F84EA809301
:10152000BC008091BC0087FFFCCF8091B900887F10
:10153000883021F0803111F081E008959093BB0054
:1015400084E88093BC008091BC0087FFFCCF909121
:10155000B900987F983129F080E0903409F081E05B
:10156000089580E0089584E98093BC008091BC00D8
:1015700084FDFCCF08958093BB0084E88093BC0079
:101580008091BC0087FFFCCF8091B90090E0887FFC
:10159000883209F091E0892F089584EC8093BC0093
:1015A0008091BC0087FFFCCF8091BB00089584E848
:1015B0008093BC008091BC0087FFFCCF8091BB0072
:1015C0000895982F84EA8093BC008091BC0087FF27
:1015D000FCCF8091B900887F883021F0803111F0F4
:1015E00081E008959093BB0084E88093BC008091D3
:1015F000BC0087FFFCCF9091B900987F983129F00B
:1016000080E0903409F081E0089580E00895109220
:10161000C50080E18093C400E0ECF0E0808182604E
:101620008083E1ECF0E0808188698083E2ECF0E087
:1016300080818660808308951092C0001092C1005E
:101640001092C2000895982F8091C00085FFFCCFB2
:101650009093C600662321F08091C00086FFFCCFE6
:1016600008951F920F920FB60F920BB60F9211248E
:101670002F933F934F935F936F937F938F939F939A
:10168000AF93BF93EF93FF939091C60080912A038D
:101690008E30C1F18F3031F180910F02882309F033
:1016A00046C080910703813009F446C0823061F55D
:1016B00040910903442309F45EC0413029F5392FD4
:1016C00020E08091020390910303822B932B90934F
:1016D000030380930203409308031092090340938D
:1016E0000F0212C09B3289F19D32E9F1973609F45D
:1016F0004AC0933749F48DEF9FE06091F0030E9458
:10170000D63F02C09A3A59F1FF91EF91BF91AF9144
:101710009F918F917F916F915F914F913F912F9109
:101720000F900BBE0F900FBE0F901F901895109248
:101730000F0290930703E8CF9A3A81F1953521F78C
:1017400080930F0210920703DFCF8091F0038F3F49
:1017500019F08F5F8093F00380936600D5CF81E00E
:1017600080938503D1CF8091F0038823A9F3815022
:101770008093F003F1CF909302031092030381E072
:1017800080930903C1CF80910B0361E05CDF8091FE
:1017900066008093F00361E056DFB6CF80930A03C2
:1017A000B3CF1F920F920FB60F9211240F900FBE5E
:1017B0000F901F90189560912603709127038091D8
:1017C000280390912903089580E090E0A0E0B0E024
:1017D0008093CE029093CF02A093D002B093D10217
:1017E0008093CA029093CB02A093CC02B093CD0217
:1017F00080933E0390933F03A0934003B093410333
:101800008093460390934703A0934803B093490302
:1018100080934A0390934B03A0934C03B0934D03E2
:101820008093560390935703A0935803B0935903A2
:101830008093520390935303A0935403B0935503A2
:101840000895F89414BC15BC10926E0010922001FB
:10185000109221018EEF9FE00E94AC3F9093030312
:10186000809302038DEF9FE00E94A43F982F809306
:10187000F00381508E3F88F590936600209102031B
:1018800030910303C90181589C40039710F41092D2
:101890002D038CE02038380749F124583C4018F0DB
:1018A00082E080932D030E941B26C3DD8BD0E4D6FB
:1018B0000E94E6290E9448010E944402809105038B
:1018C000882329F4809104038160809304039FDEC0
:1018D0000E943330E1D97894089560916600609356
:1018E000F0038DEF9FE00E94D63FC8CF81E0809348
:1018F0002D03D9CFCF93DF939EE1899FE00111247F
:10190000809168008D7F8093680080916C008F7754
:1019100080936C00D99A10927A0080917A0080614D
:1019200080937A00109290001092910010927100B2
:1019300088B3876088BB1092A0001092A10010921B
:10194000720089B3876089BB109280001092810079
:1019500073DE0E945401D4DD6CDD83B78F6083BFDA
:1019600081E0809370008091B0008D7F8093B00003
:101970008091B10087608093B100209719F088951D
:101980002197E9F713BE8091B100887F8093B10061
:10199000109270008091B00082608093B0008FEF51
:1019A00080930C0280930D0280930E021092E3024A
:1019B0001092E2021092E5021092E40242DFDF91FF
:1019C000CF910895EAE7F0E010822BE730E0D901EB
:1019D0001C92ACE7B0E01C928081866080838C9181
:1019E00080648C93808180628083D9018C91887F10
:1019F0008C938081886080838081806880838081EF
:101A00008064808308951F920F920FB60F920BB6D9
:101A10000F9211241F932F933F934F935F936F93D4
:101A20007F938F939F93AF93BF93EF93FF93809197
:101A3000260390912703A0912803B09129038F3F9B
:101A40002FEF92072FEFA2072FEFB20709F4B9C0CB
:101A50000196A11DB11D8093260390932703A093A7
:101A60002803B093290380917800482F50E02091FB
:101A70007900922F80E0482B592B8091B20282305E
:101A800009F4BDC1833008F44CC0843009F4E0C1CE
:101A9000843008F02FC18091D2029091D302480F78
:101AA000591F569547955093D3024093D202909177
:101AB0008103923009F04BC08091C503813009F455
:101AC0007BC2813008F0F1C18091C703813009F4F5
:101AD00007C39091B30280911C02883008F050C176
:101AE00080917B00877F80937B0080911C02805CCB
:101AF00080937C00923009F450C1FF91EF91BF9127
:101B0000AF919F918F917F916F915F914F913F9195
:101B10002F911F910F900BBE0F900FBE0F901F9033
:101B20001895882309F456C0813061F48091D4025D
:101B30009091D502480F591F569547955093D5025D
:101B40004093D40290918103923009F4B5CF913043
:101B500009F434C1992309F0BCCF9091B3029230BB
:101B600009F432C3933008F0D5C1992309F471C246
:101B7000913009F0B0CF80911E0280931C028091B9
:101B800021028093B5021092B20282E08093B302E8
:101B900010917F03113009F410C4123009F099CF6D
:101BA00080911D02873109F094CF109381038091B9
:101BB000C703813009F494C2109281039091B3025B
:101BC0008ACF1092260310922703109228031092B6
:101BD000290349CF60911D026E3009F4D1C2E62F6E
:101BE000F0E0DF01AA0FBB1FAE5DBD4F11965C9305
:101BF0004E9360FF72C0EE0FFF1FE05EFD4F40810D
:101C000051812D913C91862F8695A82FB0E0421BE3
:101C1000530BAA0FBB1FFD01E659FD4F8081918137
:101C2000481B590BFD01EE5AFD4F5183408357FD70
:101C3000E8C24150544024F080E094E091838083D6
:101C4000603170F4FD01EE5AFD4F0190F081E02DFE
:101C5000EC33F1050CF0F4C2A654BD4FED93FC93A8
:101C600080913C03882309F406C28091620290911E
:101C70006302845A9140B4F08091640290916502AD
:101C8000845A91407CF08091660290916702845A58
:101C9000914044F08091680290916902845A914089
:101CA0000CF0E9C181E080933D031092E5021092AF
:101CB000E4021092A9001092A8001092AB001092BA
:101CC000AA001092E3021092E20210929900109280
:101CD000980010929B0010929A00862F8F5F80933D
:101CE0001D02883108F42ECF10921D0281E08093EE
:101CF000B90228CF863009F025CF8091A40390E067
:101D000020911D02880F991F880F991F880F991F16
:101D1000820F911D880F991FE0910907F0910A0722
:101D2000E80FF91F5183408320911D02822F90E01C
:101D3000880F991FE091D709F091D809E80FF91F92
:101D4000808191818417950720F4518340832091ED
:101D50001D02822F90E0880F991FE0916704F09197
:101D60006804E80FF91F808191814817590720F412
:101D70005183408320911D022F5F20931D02E2CEEC
:101D800080917B00886080937B0080911C02885C3E
:101D900080937C00923009F0B0CE8091810388233B
:101DA00009F0ABCE80912D03882309F0ABC0809160
:101DB0000501807F8093050112B89FCE2091A30377
:101DC000263009F44EC2273008F0D4C0223009F47E
:101DD00055C2233008F470C1243009F4D5C225302F
:101DE00008F4C4C280911D028F5F80931C0286E0BC
:101DF0008093B2028093A3039091B3026CCE809142
:101E00000902882309F49ECE63999CCE64999ACEE8
:101E1000282F2F5F20930902253008F493CE80915C
:101E2000E2029091E302892B51F08091DC029091C3
:101E3000DD02840F951F9093DD028093DC02283031
:101E400009F080CE1092090281E0809308027ACED8
:101E500090910A02992309F475CE8091000183FDC7
:101E600071CE8091000184FD6DCE292F2F5F2093CC
:101E70000A02253008F466CE8091E4029091E502D2
:101E8000892B51F08091DA029091DB02840F951F2B
:101E90009093DB028093DA02283009F053CE10923F
:101EA0000A0281E0809307024DCE833009F4ABC073
:101EB000843009F00ECE8091D3038F5F8093D303DB
:101EC00090E02091CF033091D0038217930709F45B
:101ED0000CC180911E0280931C028091210280938C
:101EE000B5028091B402882309F4D3C0813009F48B
:101EF000C2C285E08093B20283E08093C5039091D3
:101F0000B302E9CD813009F073C18FEF80930501F1
:101F100012B8F3CD933009F443C1943009F0DBCD0E
:101F200080911F0280931C02809120028093B40252
:101F30008091B502882309F075C183E08093B202D5
:101F40001092B30220911D022E3009F42BC2422FB1
:101F500050E020FFBECD203108F058C2269581E028
:101F600090E002C0880F991F2A95E2F782B99091FC
:101F7000B302B1CD293009F48FC12A3008F08DC0E9
:101F8000273009F4E2C1283009F0A3CD80911F0267
:101F900080931C02809120028093B4028091B5024C
:101FA000882309F07EC283E08093B20289E08093A7
:101FB000A3039091B3028FCD80912D03882309F460
:101FC0005DC0813009F01EC28FEF8093050112B809
:101FD00080911E0280931C02809121028093B502A1
:101FE00085E08093B2028093820382E08093C503F0
:101FF0008091D403882309F0FFC081E08093D4034B
:102000009091B30268CD8091D3038F5F8093D30307
:1020100090E02091CF033091D0038217930709F409
:1020200093C080911F0280931C02809120028093B4
:10203000B4028091B502882341F1813009F41FC2B6
:1020400085E08093B20284E08093C5039091B3024F
:1020500042CD80911D02869580931C028091B4022E
:10206000882309F0E6C081E08093B20281E080938A
:10207000B30291E030CD10923D032FCE8091050147
:10208000807F8093050112B8A3CF83E08093B202D2
:10209000DACF81E08093B2022FCF2B3009F447C111
:1020A0002B3008F41AC12C3009F013CD85E0809351
:1020B000B2029091B3020FCD222309F402C1213064
:1020C00009F007CD80911D028F5F80931C0286E08E
:1020D0008093B20282E08093A3039091B302FBCC81
:1020E0008093C5039091B302F6CC1092D3038091F4
:1020F000CE03882309F09FC181E08093CE038091B5
:10210000D403882309F001C28AEA82B98091D203FC
:102110008F5F8093D2039091D103891709F0D9CEB4
:102120008091CD038F5F8093CD038C3009F473C20F
:1021300082E08093820382E08093C50385E08093F0
:10214000B2029091B302C7CC1092D3038091CE0318
:10215000882309F074C181E08093CE038091D40379
:10216000882309F0D5C18AEA82B98091D2038F5FB2
:102170008093D2039091D103891709F052CFD0CF29
:102180008091B802823009F02ACD5093B702409373
:10219000B6021092B80246988FE080931D02D2CC0E
:1021A00080911E0280931C02809121028093B502CF
:1021B0008091B402882341F581E08093B20284E0EB
:1021C0008093B30294E087CC80911F0280931C021D
:1021D000809120028093B4028091B5028823D9F4C3
:1021E00083E08093B20283E08093B30293E073CCE8
:1021F000823009F48ACE81CC1092D4039091B3023C
:102200006ACC118210821CCD813009F460C185E056
:102210008093B202D4CF813009F451C185E080931C
:10222000B202E1CF813009F456C185E08093B20259
:1022300087CE813009F447C185E08093B20216CF82
:10224000CF01CC9695958795883791050CF0FBC00A
:10225000A654BD4FFC97F595E795FC96ED93FC933E
:10226000FFCC80911D028F5F80931C022093B202ED
:1022700087E08093A3039091B3022DCC80911D023F
:102280008F5F80931C0286E08093B20283E080938C
:10229000A3039091B3021FCC80911E0280931C0275
:1022A000809121028093B5028091B402882309F0C5
:1022B000F1C09093B2028AE08093A3039091B3029D
:1022C0000ACC10921D0290931C0286E08093B20209
:1022D0009093A3039091B302FECB80911F02809351
:1022E0001C02809120028093B4028091B502882361
:1022F00009F0C9C083E08093B2028091BC038E3F95
:1023000018F48F5F8093BC039091A4039F5F909318
:10231000A40380918203843009F4FDC0943109F450
:1023200016C18BE08093A3039091B302D4CB10929B
:102330001C028091B402882309F0BAC09093B202C3
:102340001092A3039091B302C6CB80911E0280939A
:102350001C02809121028093B50286E08093B20234
:1023600088E08093A3039091B302B5CB80911D02C6
:102370008F5F80931C0286E08093B20284E080939A
:10238000A3039091B302A7CB80911D028F5F80932E
:102390001C0286E08093B20285E08093A3039091B3
:1023A000B30299CB8091B802813009F0D0CD82E0A0
:1023B0008093B802469A90E08ECB80911D028731BF
:1023C00009F0EBCB10921C021092B8021092A303FA
:1023D0001092A403E091D709F091D80980E1DF01C0
:1023E0001D928A95E9F780916704909168046FEFD8
:1023F00070E040E150E00E948D3F10938103109106
:102400007F03CBCB823009F4DFCDE2CD80912D0369
:10241000882309F063C0405150405595479581E0AD
:1024200090E002C0880F991F4A95E2F7809305015A
:102430009091B30250CB1092CE0312B867CE109297
:10244000CE0312B892CECF01845D9E4F95958795AD
:1024500095958795843B91050CF06AC0A654BD4FB5
:10246000E45BF040F595E795F595E795E858FF4F63
:10247000ED93FC93F5CB82E08093B2023DCD84E0F6
:102480008093B202E0CD813009F4C1C085E0809331
:10249000B20233CF813009F4AEC085E08093B2023E
:1024A0000ACF813009F4ABC085E08093B2027ECDC3
:1024B000813009F4A8C085E08093B20241CF84E066
:1024C0008093B20290CE82E08093B202CFCD82E0C0
:1024D0008093B20274CE9093B20232CD813009F073
:1024E000B0C020910501405150405595479581E07D
:1024F00090E002C0880F991F4A95E2F780958223E9
:10250000809305019091B302E6CA85E582B9FECDBC
:1025100085E582B92ACE1092A4039091BC038091E4
:10252000AE03981708F4FDCE85E080938203F9CEC0
:10253000A654BD4FE45AF140F595E795F595E7951A
:10254000F595E795EC54FF4FED93FC9389CB1092F2
:10255000A4032091ED063091EE0680910907909139
:102560000A079093EE068093ED0630930A072093B6
:1025700009074091EA035091EB038091D7099091AC
:10258000D8099093EB038093EA034093D7095093C3
:10259000D8092091D6033091D7033093190A20939C
:1025A000180A80916704909168049093D7038093F0
:1025B000D6033093680420936704FA0180E1DF01B9
:1025C0001D928A95E9F780916704909168046FEFF6
:1025D00070E040E150E00E948D3F809182038130A5
:1025E00009F444C080918203853009F09ACE86E0D8
:1025F0008093820396CE82E08093B2025CCE84E028
:102600008093B202D3CC82E08093B20299CE84E070
:102610008093B20272CE81E0809382031092C7034E
:102620001092B302109281030E94903012B8C3D866
:102630006093C8037093C9038093CA039093CB033C
:102640007ACD823009F045CA2091050140515040B1
:102650005595479581E090E002C0880F991F4A95F3
:10266000E2F7809582238093050133CA82E080934C
:1026700082031092BC03B6CF0F931F93CF93DF93C7
:10268000E0E9F0E01082A1E9B0E01C9221E730E03F
:10269000E901188240EA50E0EA01188261EA70E03C
:1026A000EB01188202E710E0E8011882808183685C
:1026B00080838081836080838C918B608C938091F8
:1026C000E2029091E3029093990080939800109217
:1026D0009B0010929A00D9018C9181608C9380812B
:1026E0008F7580838EB1877E8EB9EA018881836879
:1026F0008883FB0180818B6080838091E4029091CC
:10270000E5029093A9008093A8001092AB0010926C
:10271000AA00D8018C9181608C9388818F75888301
:10272000E2E0F1E08081877E8083DF91CF911F918D
:102730000F910895282F332727FD309537FD29C0A5
:102740003093FF022093FE0287FD1AC03093E90206
:102750002093E802C90122E0803092073CF08FEF1D
:1027600091E09093E9028093E802089581509E4F92
:1027700034F481E09EEF9093E9028093E80208959B
:1027800088279927821B930B9093E9028093E80294
:10279000E2CF309521953F4FD3CF282F332727FD08
:1027A000309537FD29C0309301032093000387FD46
:1027B0001AC03093E7022093E602C90122E080307C
:1027C00092073CF08FEF91E09093E7028093E6024E
:1027D000089581509E4F34F481E09EEF9093E7027C
:1027E0008093E602089588279927821B930B909384
:1027F000E7028093E602E2CF309521953F4FD3CF99
:102800008F929F92AF92BF92CF92DF92EF92FF9200
:102810000F931F93CF93DF93462F9C01220F331FFB
:10282000220F331F280F391F2115310509F492C0DB
:10283000862F8250823008F49DC0442309F077C06F
:102840006091840770918507621773070CF099C037
:102850008091940790919507821793070CF01EC200
:102860008091A4079091A507821793070CF066C387
:102870008091B4079091B507821793070CF05BC362
:102880008091C4079091C507821793070CF059C334
:102890008091D4079091D507821793070CF054C309
:1028A0008091E4079091E507821793070CF052C3DB
:1028B0008091F4079091F507821793070CF047C3B6
:1028C0008091040890910508821793070CF045C386
:1028D000B901882777FD8095982F0E94353D7B01AF
:1028E0008C016091020870910308882777FD80951C
:1028F000982F0E94353D9B01AC01C801B7010E9491
:102900001F3E7B018C0160910408709105088827A7
:1029100077FD8095982F0E94353D9B01AC01C80141
:10292000B7010E949A3C0E94023D9B0115C04330B2
:10293000C1F1423009F424C1413009F4ACC0442350
:1029400039F2413009F4EFC0423009F461C143303B
:1029500009F46FC020E030E0C901DF91CF911F91F1
:102960000F91FF90EF90DF90CF90BF90AF909F902E
:102970008F900895309521953F4F442309F460CFFF
:10298000D6CF8091820790918307AC01249FC0012C
:10299000259F900D349F900D11240E94DA3E9B01DB
:1029A000DBCF6091900770919107621773070CF06D
:1029B00062C18091A0079091A107821793070CF044
:1029C0006DC18091B0079091B107821793070CF009
:1029D000B5C28091C0079091C107821793070CF090
:1029E000AAC28091D0079091D107821793070CF06B
:1029F000A8C28091E0079091E107821793070CF03D
:102A0000A3C28091F0079091F107821793070CF011
:102A1000A1C28091000890910108821793070CF0E1
:102A200096C28091100890911108821793070CF0BC
:102A300094C2B901882777FD8095982F0E94353D73
:102A40007B018C0160910E0870910F08882777FD3B
:102A50008095982F0E94353D9B01AC01C801B701BC
:102A60000E941F3E7B018C0160911008709111083B
:102A7000882777FD8095982F0E94353D9B01AC01FA
:102A8000C801B7010E949A3C0E94023D22273327C9
:102A9000261B370B61CF60918807709189076217F9
:102AA00073070CF060C08091980790919907821786
:102AB00093070CF0F3C08091A8079091A9078217A3
:102AC00093070CF03BC28091B8079091B907821729
:102AD00093070CF030C28091C8079091C907821704
:102AE00093070CF02EC28091D8079091D9078217D6
:102AF00093070CF029C28091E8079091E9078217AB
:102B000093070CF027C28091F8079091F90782177C
:102B100093070CF01CC28091080890910908821755
:102B200093070CF01AC2B901882777FD8095982F7A
:102B30000E94353D7B018C01609106087091070869
:102B4000882777FD8095982F0E94353D9B01AC0129
:102B5000C801B7010E941F3E7B018C0160910808EB
:102B600070910908D4CE8091860790918707FC0167
:102B70002E9FC0012F9F900D3E9F900D11240DCFD1
:102B800060918C0770918D07621773070CF060C01D
:102B900080919C0790919D07821793070CF07EC04F
:102BA0008091AC079091AD07821793070CF0C6C1D6
:102BB0008091BC079091BD07821793070CF0BBC1B1
:102BC0008091CC079091CD07821793070CF0B9C183
:102BD0008091DC079091DD07821793070CF0B4C158
:102BE0008091EC079091ED07821793070CF0B2C12A
:102BF0008091FC079091FD07821793070CF0A7C105
:102C000080910C0890910D08821793070CF0A5C1D4
:102C1000B901882777FD8095982F0E94353D7B016B
:102C20008C0160910A0870910B08882777FD8095C8
:102C3000982F0E94353D9B01AC01C801B7010E944D
:102C40001F3E7B018C0160910C0870910D0810CF24
:102C500080918A0790918B07AC01249FC001259F2A
:102C6000900D349F900D11240E94DA3E22273327C5
:102C7000261B370B71CE80918E0790918F07FC0138
:102C80002E9FC0012F9F900D3E9F900D11240E94FA
:102C9000DA3E22273327261B370B5ECEC1E0D0E079
:102CA000C930D10509F44BCE442309F059C0FE01C7
:102CB0003197EE0FFF1FEE0FFF1FEE0FFF1FEE0FFE
:102CC000FF1FDF01AC57B84FCD90DC90EE57F84FA7
:102CD000A080B1802C193D09B901882777FD809526
:102CE000982F0E94353D7B018C01FE01E295F29503
:102CF000F07FFE27E07FFE27EE57F84F608171815D
:102D00006A197B09882777FD8095982F0E94353DA9
:102D10009B01AC01C801B7010E941F3E7B018C01E1
:102D2000CC0FDD1FCC0FDD1FCC0FDD1FCC0FDD1F47
:102D3000CC57D84F688179816C197D09882777FD38
:102D40008095982F0E94353D9B01AC01C801B701C9
:102D50000E949A3C0E94023D9B012A0D3B1DFCCD26
:102D6000413009F44EC0423009F489C0433009F0C3
:102D7000F1CDC295D295D07FDC27C07FDC27FE0144
:102D8000EE58F84FA684B784848495842A193B09A9
:102D9000B901882777FD8095982F0E94353D6B01FA
:102DA0007C018E010E57184FF801648575856819EE
:102DB0007909882777FD8095982F0E94353D9B01E2
:102DC000AC01C701B6010E941F3E6B017C01F801F6
:102DD000668577856A197B09882777FD8095982F06
:102DE0000E94353D9B01AC01C701B6010E949A3C8F
:102DF0000E94023D680D791D22273327261B370BC1
:102E0000ABCDFE013197E295F295F07FFE27E07F92
:102E1000FE27DF01AE57B84F1696CD90DC9017977E
:102E2000EA57F84FA080B1802C193D09B9018827D5
:102E300077FD8095982F0E94353D7B018C01C295CE
:102E4000D295D07FDC27C07FDC27FE01EA57F84F00
:102E5000608171816A197B09882777FD8095982F99
:102E60000E94353D9B01AC01C801B7010E941F3E85
:102E70007B018C01CE57D84F6E817F815DCFDE0103
:102E80001197FD01E295F295F07FFE27E07FFE2786
:102E9000EE57F84FC284D384AA0FBB1FAA0FBB1FE3
:102EA000AA0FBB1FAA0FBB1FA657B84FAD90BC906F
:102EB0002C193D09B901882777FD8095982F0E942C
:102EC000353D7B018C01CC0FDD1FCC0FDD1FCC0FFE
:102ED000DD1FCC0FDD1FFE01E657F84F60817181C9
:102EE0006A197B09882777FD8095982F0E94353DC8
:102EF0009B01AC01C801B7010E941F3E7B018C0100
:102F0000CE57D84F6A857B856C197D09882777FD58
:102F10008095982F0E94353D9B01AC01C801B701F7
:102F20000E949A3C0E94023D6A0D7B1D2227332796
:102F3000261B370B11CDC3E0D0E0B2CEC2E0D0E00B
:102F4000AFCEC4E0D0E0ACCEC5E0D0E0A9CEC7E0C3
:102F5000D0E0A6CEC6E0D0E0A3CEC8E0D0E0A0CEC0
:102F60008F929F92AF92BF92CF92DF92EF92FF9299
:102F70000F931F93CF93DF93C091E002D091E102B2
:102F80008091E2029091E30297FDEAC0609186078A
:102F9000709187076C177D070CF067C188248A94AD
:102FA000982C80919607909197078C179D074CF06D
:102FB00080E09FEF89169FEF990609F475C1882E6E
:102FC00099248091A6079091A7078C179D0734F04C
:102FD000EFEF8E16EFEF9E0609F462C18091B607FF
:102FE0009091B7078C179D0734F0FFEF8F16FFEF16
:102FF0009F0609F451C18091C6079091C7078C17AD
:103000009D0734F02FEF82162FEF920609F440C18E
:103010008091D6079091D7078C179D0734F03FEF2A
:1030200083163FEF930609F42FC18091E607909134
:10303000E7078C179D0734F08FEF88168FEF9806FF
:1030400009F41EC18091F6079091F7078C179D0730
:1030500034F09FEF89169FEF990609F40DC1C090D7
:103060000608D0900708CC16DD0634F0EFEF8E1678
:10307000EFEF9E0609F4FCC0209709F460C08114AC
:10308000910409F442C13FEF83163FEF930609F420
:103090000DC1F4013197E295F295F07FFE27E07FB4
:1030A000FE27DF01AA57B84FCD90DC90EE57F84FBE
:1030B000A680B780CC19DD09BE01882777FD8095F1
:1030C000982F0E94353D7B018C0182949294B0EF41
:1030D0009B2298248B229824F401EE57F84F6681A6
:1030E00077816A197B09882777FD8095982F0E9440
:1030F000353D9B01AC01C801B7010E941F3E7B0119
:103100008C0186E897E0880E991EF4016081718138
:103110006C197D09882777FD8095982F0E94353D91
:103120009B01AC01C801B7010E949A3C0E94023D7C
:103130006A0D7B1D709376036093750304C0109233
:10314000760310927503DF91CF911F910F91FF903D
:10315000EF90DF90CF90BF90AF909F908F900895A9
:1031600060918E0770918F076C177D070CF02BC153
:103170000FEF1FEF80919E0790919F078C179D077F
:103180002CF02FEF0F3F120709F420C18091AE07FA
:103190009091AF078C179D072CF03FEF0F3F13075F
:1031A00009F426C18091BE079091BF078C179D0737
:1031B0002CF08FEF0F3F180709F417C18091CE074D
:1031C0009091CF078C179D072CF09FEF0F3F1907A9
:1031D00009F408C18091DE079091DF078C179D07E5
:1031E0002CF0EFEF0F3F1E0709F4F9C08091EE07B6
:1031F0009091EF078C179D072CF0FFEF0F3F1F07F3
:1032000009F4EAC08091FE079091FF078C179D0793
:103210002CF02FEF0F3F120709F4DBC0C0900E080F
:10322000D0900F08CC16DD062CF03FEF0F3F1307B0
:1032300009F47EC00115110509F07CC0809190074A
:10324000909191079C01C29FC001C39F900DD29F96
:10325000900D11240E94DA3ECB01909581959F4FED
:1032600090937603809375036ECF8824992499CE2A
:1032700088E0882E912C00CF97E0892E912CEFCEFC
:1032800026E0822E912CDECE35E0832E912CCDCE01
:1032900044E0842E912CBCCE53E0852E912CABCEF5
:1032A000E2E08E2E912C9ACE81E089CE60910808C2
:1032B00070910908882777FD8095982F0E94353DE9
:1032C0007B018C01BE01882777FD8095982F0E9495
:1032D000353D9B01AC01C801B7010E941F3E7B0137
:1032E0008C01B601882777FD8095982F0E94353D87
:1032F0009B01AC01C801B7010E949A3C0E94023DAB
:1033000070937603609375031ECF80918807909128
:1033100089079C01C29FC001C39F900DD29F900D51
:1033200011240E94DA3E70937603609375030BCFED
:1033300008E010E03FEF0F3F130709F45CC002956F
:103340001295107F1027007F1027F801EE58F84FD4
:10335000A484B58486849784CA19DB09BE018827B2
:1033600077FD8095982F0E94353D6B017C010E57AB
:10337000184FF8016685778568197909882777FDE0
:103380008095982F0E94353D9B01AC01C701B60185
:103390000E941F3E6B017C01F801648575856A19E6
:1033A0007B09882777FD8095982F0E94353D9B01EA
:1033B000AC01C701B6010E949A3C0E94023D680D13
:1033C000791DCB014ACF00E010E0D4CE01E010E03F
:1033D000DDCE07E010E022CF06E010E013CF05E0DD
:1033E00010E004CF04E010E0F5CE03E010E0E6CEFC
:1033F00002E010E0D7CE6091100870911108882784
:1034000077FD8095982F0E94353D7B018C01BE0190
:10341000882777FD8095982F0E94353D9B01AC0150
:10342000C801B7010E941F3E7B018C01B6018827AD
:1034300077FD8095982F0E94353D9B01AC01C80116
:10344000B7010E949A3C0E94023DCB0106CF8F92A9
:103450009F92AF92BF92CF92DF92EF92FF920F9323
:103460001F93CF93DF93C091DE02D091DF02809152
:10347000E4029091E50297FDF3C06091820770919C
:1034800083076C177D070CF079C188248A94982CE7
:1034900080919207909193078C179D074CF080E0E4
:1034A0009FEF89169FEF990609F487C1882E99240A
:1034B0008091A2079091A3078C179D0734F0EFEF3E
:1034C0008E16EFEF9E0609F474C18091B2079091B9
:1034D000B3078C179D0734F0FFEF8F16FFEF9F06A1
:1034E00009F463C18091C2079091C3078C179D07AF
:1034F00034F02FEF82162FEF920609F452C180911B
:10350000D2079091D3078C179D0734F03FEF8316B5
:103510003FEF930609F441C18091E2079091E307E0
:103520008C179D0734F08FEF88168FEF980609F4FB
:1035300030C18091F2079091F3078C179D0734F00A
:103540009FEF89169FEF990609F41FC1C0900208EA
:10355000D0900308CC16DD0634F0EFEF8E16EFEFB7
:103560009E0609F40EC1209709F469C081149104E4
:1035700009F454C13FEF83163FEF930609F41FC1CE
:10358000D4011197FD01E295F295F07FFE27E07FCF
:10359000FE27EE57F84FC080D180AA0FBB1FAA0F9D
:1035A000BB1FAA0FBB1FAA0FBB1FAC57B84FAD90D4
:1035B000BC90CC19DD09BE01882777FD8095982F36
:1035C0000E94353D7B018C01880C991C880C991C4C
:1035D000880C991C880C991CF401EC57F84F6081F9
:1035E00071816A197B09882777FD8095982F0E9441
:1035F000353D9B01AC01C801B7010E941F3E7B0114
:103600008C0182E897E0880E991EF4016081718137
:103610006C197D09882777FD8095982F0E94353D8C
:103620009B01AC01C801B7010E949A3C0E94023D77
:103630006A0D7B1D709374036093730304C0109232
:10364000740310927303DF91CF911F910F91FF903C
:10365000EF90DF90CF90BF90AF909F908F900895A4
:1036600060918A0770918B076C177D070CF04EC133
:1036700088248A94982C80919A0790919B078C17A4
:103680009D0734F02FEF82162FEF920609F441C107
:103690008091AA079091AB078C179D0734F03FEFFC
:1036A00083163FEF930609F44CC18091BA079091BD
:1036B000BB078C179D0734F08FEF88168FEF9806A5
:1036C00009F43BC18091CA079091CB078C179D07E5
:1036D00034F09FEF89169FEF990609F42AC1809173
:1036E000DA079091DB078C179D0734F0EFEF8E1609
:1036F000EFEF9E0609F419C18091EA079091EB075C
:103700008C179D0734F0FFEF8F16FFEF9F0609F42B
:1037100008C18091FA079091FB078C179D0734F040
:103720002FEF82162FEF920609F4F7C0C0900A0817
:10373000D0900B08CC16DD0634F03FEF83163FEF38
:10374000930609F47EC08114910409F07DC0809134
:103750008C0790918D079C01C29FC001C39F900D63
:10376000D29F900D11240E94DA3ECB019095819555
:103770009F4F909374038093730365CF882499249B
:1037800087CEE8E08E2E912CEECEF7E08F2E912C96
:10379000DDCEA6E08A2E912CCCCEB5E08B2E912CDE
:1037A000BBCE14E0812E912CAACE03E0802E912C6A
:1037B00099CE82E0882E912C88CE81E077CE6091E0
:1037C000040870910508882777FD8095982F0E943E
:1037D000353D7B018C01BE01882777FD8095982FB0
:1037E0000E94353D9B01AC01C801B7010E941F3EFC
:1037F0007B018C01B601882777FD8095982F0E9468
:10380000353D9B01AC01C801B7010E949A3C0E9462
:10381000023D709374036093730315CF8091840706
:10382000909185079C01C29FC001C39F900DD29FBC
:10383000900D11240E94DA3E709374036093730319
:1038400002CF98E0892E912C3FEF83163FEF93062D
:1038500009F47BC0F4013197EE0FFF1FEE0FFF1F3D
:10386000EE0FFF1FEE0FFF1FDF01A657B84FCD90E1
:10387000DC90EE57F84FA284B384CC19DD09BE0169
:10388000882777FD8095982F0E94353D7B018C011C
:10389000F401E295F295F07FFE27E07FFE27EE57D8
:1038A000F84F628573856A197B09882777FD8095B3
:1038B000982F0E94353D9B01AC01C801B7010E94C1
:1038C0001F3E7B018C01880C991C880C991C880C6C
:1038D000991C880C991C8AE897E0880E991EF401BF
:1038E000608171816C197D09882777FD8095982FFB
:1038F0000E94353D9B01AC01C801B7010E949A3C72
:103900000E94023D6A0D7B1DCB0130CF8824992493
:10391000B2CEA1E08A2E912CBBCE27E0822E912C34
:1039200005CF36E0832E912CF4CE45E0842E912CE9
:10393000E3CE54E0852E912CD2CEE3E08E2E912C56
:10394000C1CEF2E08F2E912CB0CE60910C08709118
:103950000D08882777FD8095982F0E94353D7B01C3
:103960008C01BE01882777FD8095982F0E94353DF8
:103970009B01AC01C801B7010E941F3E7B018C0175
:10398000B601882777FD8095982F0E94353D9B01D1
:10399000AC01C801B7010E949A3C0E94023DCB01D4
:1039A000E5CE1F920F920FB60F9211248F939F9323
:1039B00080913D038823C1F11092E5021092E40248
:1039C0001092A9001092A8001092AB001092AA00C9
:1039D0001092D3021092D2028091D8029091D90213
:1039E00097FD79C081E0809321028EE080931E02D2
:1039F00081E080930A028091A0008F758093A000DF
:103A000080910201877E8093020180917200897FFC
:103A10008093720089B3866089BB9F918F910F90CC
:103A20000FBE0F901F9018951092D3021092D202E1
:103A30008091E4029091E502009771F21816190640
:103A40002CF5109221028FE080931E028091A0003D
:103A50008F7D8093A000809172008B7F8093720095
:103A6000809102018F7E809302018091A000806886
:103A70008093A000809172008260809372009F9179
:103A80008F910F900FBE0F901F90189510922102EA
:103A90008EE080931E028091A0008F778093A0001B
:103AA000809172008D7F8093720080910201877FE8
:103AB000809302018091A00080628093A000809199
:103AC00072008460809372009F918F910F900FBE5F
:103AD0000F901F90189581E0809321028FE08093D2
:103AE0001E0286CF1F920F920FB60F9211248F9352
:103AF0009F9391E0909321028EE080931E02909319
:103B00000A029F918F910F900FBE0F901F901895F2
:103B10001F920F920FB60F9211248F939F9391E0F3
:103B2000909321028FE080931E0290930A029F914E
:103B30008F910F900FBE0F901F9018951F920F92AC
:103B40000FB60F9211248F939F9380913D0388238A
:103B5000B1F11092E3021092E202109299001092D9
:103B6000980010929B0010929A001092D502109229
:103B7000D4028091D6029091D70297FD6FC081E068
:103B8000809320028CE080931F0281E080930902E1
:103B9000809190008F75809390008EB1877E8EB952
:103BA00080917100897F8093710088B3866088BBA3
:103BB0009F918F910F900FBE0F901F9018951092AC
:103BC000D5021092D4028091E2029091E302009714
:103BD00081F2181619060CF5109220028DE08093E0
:103BE0001F02809190008F7D8093900080917100E2
:103BF0008B7F80937100749880919000806880938F
:103C00009000809171008260809371009F918F91EC
:103C10000F900FBE0F901F901895109220028CE00D
:103C200080931F02809190008F7780939000809105
:103C300071008D7F809371007398809190008062F5
:103C400080939000809171008460809371009F91B7
:103C50008F910F900FBE0F901F90189581E0809369
:103C600020028DE080931F0290CF1F920F920FB61B
:103C70000F9211248F939F9391E0909320028CE0F8
:103C800080931F02909309029F918F910F900FBE16
:103C90000F901F9018951F920F920FB60F9211243C
:103CA0008F939F9391E0909320028DE080931F0269
:103CB000909309029F918F910F900FBE0F901F90CC
:103CC00018952F923F924F925F926F927F928F92B0
:103CD0009F92AF92BF92CF92DF92EF92FF920F939B
:103CE0001F9340910E04442309F44CC22091EA0230
:103CF0003091EB02413009F40AC337FD80C1C9019C
:103D000061E00E9400149093FB028093FA0280917C
:103D1000EC029091ED0297FD80C160E00E940014DA
:103D20009093FD028093FC0280913B03882309F06D
:103D300080C18091FC029091FD029093D902809302
:103D4000D8028091FA029091FB029093D70280935F
:103D5000D60280910702882309F4A1C02091DA02DB
:103D60003091DB0236952795369527953093DF0203
:103D70002093DE02109207021092DB021092DA0208
:103D800080910E04813009F493C361DB809152036A
:103D900090915303A0915403B091550380935A031B
:103DA00090935B03A0935C03B0935D0360917303F6
:103DB00070917403882777FD8095982F0E94353D78
:103DC0007B018C010E94DB0B2091770330917803FB
:103DD0004091790350917A03621B730B840B950B0E
:103DE0000E94333D20E030E040ED52E40E941F3E4F
:103DF0009B01AC01C801B7010E941F3E20E034E2E4
:103E000044E759E40E949A3C9B01AC016091520343
:103E10007091530380915403909155030E94333C59
:103E2000609352037093530380935403909355030C
:103E30000E94DB0B60937703709378038093790380
:103E400090937A03609152037091530380915403CD
:103E5000909155030E94023D0E94353D6093CE0231
:103E60007093CF028093D0029093D1028CEF92E0B6
:103E70000E94EE082091FC023091FD023093E50291
:103E80002093E402121613060CF035C33093A900F8
:103E90002093A800809162038F5F809362038091DA
:103EA0000802882309F0CBC080916203823008F4B5
:103EB00095C01092620320905603309057034090B3
:103EC00058035090590360905203709053038090B0
:103ED000540390905503C201B10120915E033091CB
:103EE0005F0340916003509161030E94323C7B016B
:103EF0008C01C401B30120915A0330915B034091BE
:103F00005C0350915D030E94323C9B01AC01C801EF
:103F1000B7010E94333C20E030E040E05FE30E94C4
:103F20001F3E5B016C0160934E0370934F038093BF
:103F300050039093510380911302813009F4F4C12E
:103F40008091630390916403A0916503B09166032F
:103F500080933E0390933F03A0934003B0934103AB
:103F60007C018D01C801B7010E94973C9B01AC0107
:103F7000C601B5010E941F3E9B01AC016091460342
:103F80007091470380914803909149030E94333C0C
:103F900060934603709347038093480390934903CB
:103FA000C801B7010E94823E9B01AC01C601B50168
:103FB0000E941F3E9B01AC0160914A0370914B032C
:103FC00080914C0390914D030E94333C60934A03CF
:103FD00070934B0380934C0390934D031F910F916B
:103FE000FF90EF90DF90CF90BF90AF909F908F9019
:103FF0007F906F905F904F903F902F900895C901F0
:1040000063E00E9400149093FB028093FA02809177
:10401000EC029091ED0297FF80CE62E00E940014C6
:104020009093FD028093FC0280913B03882309F466
:1040300080CE8CEF92E06AEF72E0BDD77ACE20910D
:10404000DC023091DD023695279536952795309321
:10405000E1022093E002109208021092DD02109219
:10406000DC0280910E04813009F4FFC10E94B01778
:104070008091560390915703A0915803B091590332
:1040800080935E0390935F03A0936003B0936103FA
:104090006091750370917603882777FD8095982F3E
:1040A0000E94353D7B018C010E94DB0B20917B033C
:1040B00030917C0340917D0350917E03621B730B12
:1040C000840B950B0E94333D20E030E040ED52E43C
:1040D0000E941F3E9B01AC01C801B7010E941F3E18
:1040E00020E034E244E759E40E949A3C9B01AC0191
:1040F0006091560370915703809158039091590332
:104100000E94333C60935603709357038093580387
:10411000909359030E94DB0B60937B0370937C03A5
:1041200080937D0390937E036091560370915703B3
:1041300080915803909159030E94023D0E94353DA1
:104140006093CA027093CB028093CC029093CD020D
:104150008AEF92E00E94C3072091FA023091FB029D
:104160003093E3022093E202121613060CF0D0C142
:104170003093990020939800809162038F5F809321
:10418000620394CE0E94DB0B8B019C0140E050E067
:1041900060E070E080912E0390912F03F091300346
:1041A000B0913103D0903203B09033039090340338
:1041B000A0913503802E881AE1E0081508F030C17F
:1041C000812F891B91E0181708F022C1E82EEE1A02
:1041D000E1E08E1508F013C19E2B822F8F1BE1E0CA
:1041E000281708F004C1A82EA91A91E08A1508F032
:1041F000F5C0E92B832F8B1B91E0381708F0E6C040
:10420000C82ECE1AE1E08C1508F0D7C09E2B8D2D5C
:104210008195E1E0481708F0C8C0B82FB91B91E0BC
:104220008B1708F0B9C0E92B8B2D8195F1E0581759
:1042300008F0A9C0982F9E1BE92F91E08E1708F077
:1042400099C0F92B892D819591E0681708F08AC0F3
:10425000382F3F1B21E0831708F07DC0922BA195DA
:10426000A91709F4E5C00E94DB0B9B01AC01609328
:104270002E0330932F034093300350933103109259
:10428000320310923303109234031092350380915D
:104290003603882309F449C14091E6025091E702B0
:1042A0004115510509F056C11092EB021092EA0235
:1042B00020E030E04091E8025091E90241155105BB
:1042C00009F47FC16091EC027091ED02649FC0011E
:1042D000659F900D749F900D112497FD72C1641716
:1042E00075070CF075C180911402FB01E80FF11DF8
:1042F000F093ED02E093EC024E175F070CF07BC1E8
:104300005093ED024093EC0240910E04F3CC3093B5
:10431000FB022093FA028091EC029091ED029093BF
:10432000FD028093FC0200CDC201B101A401930102
:104330000E94323C20E030E04EE152E40E949A3C80
:1043400060933E0370933F03809340039093410337
:104350007B018C0107CE20E0922BA195A91709F0D3
:1043600082CF66C090E0382F3F1B21E0831708F40E
:1043700075CFF1CF90E0F92B892D819591E06817E9
:1043800008F466CFEFCFF0E0982F9E1BE92F91E065
:104390008E1708F456CFEECF90E0E92B8B2D819548
:1043A000F1E0581708F446CFEECFE0E0B82FB91B84
:1043B00091E08B1708F437CFEFCFE0E09E2B8D2DE7
:1043C0008195E1E0481708F428CFEFCF90E0C82EA0
:1043D000CE1AE1E08C1508F419CFEFCF90E0E92B6D
:1043E000832F8B1B91E0381708F40ACFEFCFE0E062
:1043F000A82EA91A91E08A1508F4FBCEEFCFE0E0D1
:104400009E2B822F8F1BE1E0281708F4ECCEEFCF14
:1044100090E0E82EEE1AE1E08E1508F4DDCEEFCF45
:10442000E0E0812F891B91E0181708F4CFCEF0CF80
:10443000332309F018CFEE2309F015CFBB2309F081
:1044400012CFCC2009F00FCFAA2009F00CCFE1E069
:10445000EE1508F408CFEE1609F4E4C040910E04FE
:104460002091EA023091EB0245CCC901AA2797FDC1
:10447000A095BA2F20916B0330916C0340916D038E
:1044800050916E03280F391F4A1F5B1F20936B0347
:1044900030936C0340936D0350936E0380917103CE
:1044A0009091720301969093720380937103DECD15
:1044B000C901AA2797FDA095BA2F209167033091D3
:1044C00068034091690350916A03280F391F4A1FFE
:1044D0005B1F2093670330936803409369035093F5
:1044E0006A0380916F03909170030196909370031B
:1044F00080936F034ACC2115310509F059C0109201
:10450000A9001092A8001092AB001092AA00C2CC91
:104510002115310509F043C01092990010929800BE
:1045200010929B0010929A0027CE2091E6023091C3
:10453000E7022093EA023093EB028091E802909127
:10454000E9029093ED028093EC0240910E04C901C0
:104550009C01D0CB2091EA023091EB02249FC00154
:10456000259F900D349F900D112497FD9DCE24170B
:1045700035070CF043C080911402B901680F711D1A
:10458000CB017093EB026093EA02461757070CF0D9
:1045900047C05093EB024093EA029A018BCE8827E2
:1045A0009927821B930B90939B0080939A00E4CDF4
:1045B00088279927821B930B9093AB008093AA00C6
:1045C00069CC1092ED021092EC0240910E0492CB55
:1045D0004617570784F480911402FB01E81BF10988
:1045E000F093ED02E093EC02E417F50724F4509306
:1045F000ED024093EC0240910E047CCB421753072E
:104600000CF058CE80911402F901E81BF109CF019A
:10461000F093EB02E093EA02E417F5070CF4B9CF4C
:104620009C0148CEFFE8F81508F41DCE40910E0419
:104630005DCB9F92AF92BF92CF92DF92EF92FF92AB
:104640000F931F93CF93DF9380910E04882309F477
:10465000C9C0C091EA02D091EB020091EC02109126
:10466000ED02809107028823C9F12091DA0230918E
:10467000DB0236952795369527953093DF022093F8
:10468000DE02109207021092DB021092DA02809191
:10469000E8029091E90297FD34C23595279535954A
:1046A000279535952795B901882777FD8095982F0F
:1046B0000E94353D9B01AC016091CE027091CF020A
:1046C0008091D0029091D1020E94333C6093CE023F
:1046D0007093CF028093D0029093D1028091080210
:1046E0008823C9F12091DC023091DD0236952795AF
:1046F000369527953093E1022093E002109208024C
:104700001092DD021092DC028091E6029091E702A5
:1047100097FDD5C1359527953595279535952795DD
:10472000B901882777FD8095982F0E94353D9B0120
:10473000AC016091CA027091CB028091CC02909141
:10474000CD020E94333C6093CA027093CB028093E7
:10475000CC029093CD02CE01880F991F880F991F2C
:104760008C0F9D1F9093FB028093FA02C801880F63
:10477000991F880F991F800F911F9093FD028093BE
:10478000FC0280913B03882309F0FEC04091FC02AB
:104790005091FD025093E5024093E4022091FA0209
:1047A0003091FB023093E3022093E20212161306CB
:1047B0000CF0F0C030939900209398001416150661
:1047C0000CF0D5C05093A9004093A800DF91CF9181
:1047D0001F910F91FF90EF90DF90CF90BF90AF901F
:1047E0009F9008950E94DB0B8B019C0140E050E0FC
:1047F00060E070E080912E0390912F03F0913003E0
:10480000B0913103E0903203C0903303A0903403A1
:10481000A0913503902E981AE1E0091508F02CC1FB
:10482000812F891B91E0181708F01EC1F82EFE1A7F
:10483000E1E08F1508F00FC19E2B822F8F1BE1E066
:10484000281708F000C1B82EB91A91E08B1508F0AE
:10485000F1C0E92B832F8B1B91E0381708F0E2C0E1
:10486000D82EDE1AE1E08D1508F0D3C09E2B8E2DD8
:104870008195E1E0481708F0C4C0B82FB91B91E05A
:104880008B1708F0B5C0E92B8C2D8195F1E05817F6
:1048900008F0A5C0982F9E1BE92F91E08E1708F015
:1048A00095C0F92B8A2D819591E0681708F086C094
:1048B000382F3F1B21E0831708F079C0922BA19578
:1048C000A91709F4E1C00E94DB0B9B01AC016093C6
:1048D0002E0330932F0340933003509331031092F3
:1048E00032031092330310923403109235038091F7
:1048F0003603882309F439C12091E6023091E7029A
:104900002115310509F046C11092EB021092EA021E
:10491000C0E0D0E02091E8023091E9022115310594
:1049200009F45BC10091EC021091ED02029FC001FD
:10493000039F900D129F900D112497FD4EC10217F9
:1049400013070CF051C180911402A801480F511DAA
:10495000CA015093ED024093EC02241735070CF086
:1049600017C13093ED022093EC0289017ACE4115F4
:10497000510509F0F1C01092A9001092A800109200
:10498000AB001092AA0022CF8CEF92E06AEF72E0A7
:1049900012D3FCCE2115310509F0D5C01092990033
:1049A0001092980010929B0010929A0007CF20E07E
:1049B000922BA195A91709F086CF66C090E0382FF9
:1049C0003F1B21E0831708F479CFF1CF90E0F92B5A
:1049D0008A2D819591E0681708F46ACFEFCFF0E057
:1049E000982F9E1BE92F91E08E1708F45ACFEECF37
:1049F00090E0E92B8C2D8195F1E0581708F44ACF0F
:104A0000EECFE0E0B82FB91B91E08B1708F43BCF55
:104A1000EFCFE0E09E2B8E2D8195E1E0481708F462
:104A20002CCFEFCF90E0D82EDE1AE1E08D1508F400
:104A30001DCFEFCF90E0E92B832F8B1B91E0381730
:104A400008F40ECFEFCFE0E0B82EB91A91E08B1545
:104A500008F4FFCEEFCFE0E09E2B822F8F1BE1E02A
:104A6000281708F4F0CEEFCF90E0F82EFE1AE1E020
:104A70008F1508F4E1CEEFCFE0E0812F891B91E0A4
:104A8000181708F4D3CEF0CF332309F01CCFEE2350
:104A900009F019CFBB2309F016CFDD2009F013CFA1
:104AA000BB2009F010CF41E04F1508F40CCFF416ED
:104AB00009F0CFCD5FE8591508F405CFCACD35957B
:104AC00027953595279535952795B901882777FD41
:104AD0008095982F0E94353D9B01AC016091CA02E0
:104AE0007091CB028091CC029091CD020E94323C19
:104AF0006093CA027093CB028093CC029093CD0254
:104B00002ACE359527953595279535952795B90161
:104B1000882777FD8095982F0E94353D9B01AC0139
:104B20006091CE027091CF028091D0029091D1021B
:104B30000E94323C6093CE027093CF028093D002E9
:104B40009093D102CBCD88279927821B930B90930A
:104B50009B0080939A0032CE88279927841B950B5F
:104B60009093AB008093AA0031CE2091E602309161
:104B7000E7022093EA023093EB024091E802509161
:104B8000E9024093EC025093ED02C901EC01CA0125
:104B90008C0167CDC091EA02D091EB02C29FC001A7
:104BA000C39F900DD29F900D112497FDADCEC217DB
:104BB000D30774F580911402AE01480F511DCA014C
:104BC0005093EB024093EA022417350794F5309393
:104BD000EB022093EA02E9019DCE1092ED021092C1
:104BE000EC0200E010E03DCD201731070CF039CD8C
:104BF00080911402A801481B5109CA015093ED028B
:104C00004093EC02421753070CF4ABCE8C0129CD34
:104C10002C173D070CF07ECE80911402AE01481B8C
:104C20005109CA015093EB024093EA02421753071D
:104C300074F2EC016FCE2F923F924F925F926F927F
:104C40007F928F929F92AF92BF92CF92DF92EF921C
:104C5000FF920F931F93CF93DF938AE69FE00E940A
:104C6000AC3F85559A4A09F49CC174E1872E912C7A
:104C7000909283078092820788E290E09093930756
:104C8000809392078BE390E09093A3078093A20711
:104C90008FE490E09093B3078093B20784E690E0AE
:104CA0009093C3078093C207C8E7D0E0D093D3079F
:104CB000C093D2076BE8E62EF12CF092E307E09266
:104CC000E2078FE990E09093F3078093F20754EBAB
:104CD000A52EB12CB0920308A092020823E130E087
:104CE00030938507209384078FE290E09093950797
:104CF0008093940788E490E09093A5078093A4079D
:104D00008BE590E09093B5078093B4078DE690E033
:104D10009093C5078093C4074DE7C42ED12CD09241
:104D2000D507C092D4078FE890E09093E507809371
:104D3000E40740EA50E05093F5074093F4078EEA09
:104D400090E09093050880930408309387072093A0
:104D5000860767E270E070939707609396070CE30D
:104D600010E01093A7070093A60720E5222E312C10
:104D70003092B7072092B607A3E6B0E0B093C7071A
:104D8000A093C60727E730E03093D7072093D607D4
:104D9000ECE8F0E0F093E707E093E6075093F707BD
:104DA0004093F607B0920708A092060887E190E0CA
:104DB00090938907809388079EE2492E512C509248
:104DC00099074092980780E490E09093A907809318
:104DD000A80781E5682E712C7092B9076092B80718
:104DE00081E690E09093C9078093C80780E790E040
:104DF0009093D9078093D807D092E907C092E8072B
:104E0000F092F907E092F80788E990E0909309089A
:104E10008093080890928B0780928A0770939B0773
:104E200060939A071093AB070093AA078FE490E072
:104E30009093BB078093BA07B093CB07A093CA07A0
:104E4000D093DB07C093DA07F093EB07E093EA0710
:104E50005093FB074093FA0783EB90E090930B0885
:104E600080930A0882E190E090938D0780938C07ED
:104E70008DE290E090939D0780939C0784E490E0FE
:104E80009093AD078093AC0787E590E09093BD07C2
:104E90008093BC0789E690E09093CD078093CC0780
:104EA0003093DD072093DC0789E890E09093ED07CD
:104EB0008093EC0787E990E09093FD078093FC07CF
:104EC00088EA90E090930D0880930C0890928F07E9
:104ED00080928E0770939F0760939E078BE390E00C
:104EE0009093AF078093AE073092BF072092BE0722
:104EF00084E690E09093CF078093CE073093DF074E
:104F00002093DE07F092EF07E092EE075093FF0741
:104F10004093FE07B0920F08A0920E0886E190E041
:104F200090939107809390075092A1074092A00719
:104F300081E490E09093B1078093B0077092C1072D
:104F40006092C00780E690E09093D1078093D007ED
:104F50008FE690E09093E1078093E007D092F1070D
:104F6000C092F007F0920108E092000889E990E011
:104F700090931108809310080E948230DF91CF91A6
:104F80001F910F91FF90EF90DF90CF90BF90AF9067
:104F90009F908F907F906F905F904F903F902F9059
:104FA00008950E947A30EACF81E080933B03089510
:104FB00010923B0308952F923F924F925F926F920F
:104FC0007F928F929F92AF92BF92CF92DF92EF9299
:104FD000FF920F931F93DF93CF9300D000D0CDB7F4
:104FE000DEB72C011B01FC010190F081E02DFC8358
:104FF000EB83FB010190F081E02DFA83E98380913E
:10500000BA029091BB02059724F41092BB02109251
:10501000BA028091BC029091BD02059724F41092CF
:10502000BD021092BC028091BE029091BF02059712
:1050300024F41092BF021092BE028091C00290919F
:10504000C102059724F41092C1021092C00280910F
:10505000C2029091C302059724F41092C3021092E9
:10506000C2028091C4029091C502059724F4109267
:10507000C5021092C4028091C6029091C7020597A2
:1050800024F41092C7021092C6028091C802909137
:10509000C902059724F41092C9021092C802A09088
:1050A000BA02B090BB02B094A194B108B3948090BE
:1050B000BC029090BD0295948794C090C002D0909D
:1050C000C102D594C7942091C2023091C3023E839D
:1050D0002D830091C4021091C50215950795E090AB
:1050E000C802F090C902F594E7940E947F3FED81D9
:1050F000FE817E97EA0DFB1DEC0DFD1DE00FF11FFB
:10510000E819F909EE19FF096CE370E00E94DA3E34
:10511000E80FF91FFE83ED836090BC027090BD0222
:1051200075946794C090BE02D090BF02D594C79486
:10513000D594C794A090C002B090C102B594A79432
:105140008090C4029090C502959487940091C60205
:105150001091C7021595079515950795E090C8021F
:10516000F090C902F594E7940E947F3F93012C0DC3
:105170003D1D2E5130402A0D3B1D201B310B28199F
:1051800039092E193F096CE370E00E94DA3E280FBE
:10519000391F8B819C8197FDDBC07C010027F7FCC8
:1051A0000095102FED81FE813F01882477FC8094CB
:1051B000982C5901CC24B7FCC094DC2CC401B30159
:1051C0006A197B098C099D09A80197010E94A73ED5
:1051D00056E095958795779567955A95D1F7E60EA0
:1051E000F71E081F191FF201F182E08229813A811E
:1051F00037FD8FC079010027F7FC0095102FA60C12
:10520000B71CC81CD91CC601B501A80197010E9492
:10521000A73E36E095958795779567953A95D1F7AE
:105220006E0D7F1D801F911FAB01F10171836083A3
:1052300080912A038A3009F448C0F2E040305F07C9
:105240003CF08FEF91E0F101918380834FEF51E0CB
:10525000F20120813181F2E020303F0754F08FEFDE
:1052600091E0F20191838083F101408151812FEF20
:1052700031E041505E4F44F481E09EEFF1019183B3
:105280008083F2012081318121503E4F2CF481E056
:105290009EEFF2019183808326960FB6F894DEBFCD
:1052A0000FBECDBFCF91DF911F910F91FF90EF9077
:1052B000DF90CF90BF90AF909F908F907F906F9036
:1052C0005F904F903F902F9008952B813C81232B2E
:1052D000E1F029813A81232BC1F080912403909140
:1052E00025038B559040833B910508F05BC0F2018C
:1052F000808191810A9691838083F101408151815F
:105300004A5050405183408398CFF10140815181F0
:1053100094CF79010027F7FC0095102F6A187B08BD
:105320008C089D08C401B301A80197010E94A73E03
:1053300026E095958795779567952A95D1F7E61A92
:10534000F70A080B190BA701F101F182E08270CF77
:105350007C010027F7FC0095102FED81FE813F01B5
:10536000882477FC8094982C5901CC24B7FCC094F5
:10537000DC2CC601B501660D771D881D991DA8019D
:1053800097010E94A73E46E095958795779567958A
:105390004A95D1F7E61AF70A080B190BF201F182C8
:1053A000E08224CFF201808191810A9791838083EA
:1053B000F10140815181465F5F4F518340833DCF72
:1053C00080919400909195000C94823FE0E8F0E089
:1053D0001082A1E8B0E01C928081896A80838C9160
:1053E00089608C9380910C0290E090938900809367
:1053F000880080910D0290E090938B0080938A004A
:1054000080910E0290E090938D0080938C0008951F
:10541000982F882361F080918000806880938000BD
:10542000892F90E09093890080938800089580915F
:1054300080008F77809380002D980895982F88237F
:1054400061F080918000806280938000892F90E0DD
:1054500090938B0080938A000895809180008F7DC7
:10546000809380002E980895982F882361F0809172
:105470008000886080938000892F90E090938D0059
:1054800080938C00089580918000877F80938000B6
:105490002F9808951F93DF93CF9300D000D0CDB7FE
:1054A000DEB780910D038823C9F0813009F499C0DB
:1054B00010920F0310920E0310921103109210031A
:1054C000109213031092120326960FB6F894DEBFC3
:1054D0000FBECDBFCF91DF911F9108958091120231
:1054E0000E948D0A80E00E94BB0A809112028F5FA9
:1054F0000E94E10A0E94CD0A89830E94CD0A8A8314
:105500000E94CD0A8B830E94CD0A8C830E94CD0A13
:105510008D830E94D70A182F8E830E94B30A809130
:105520001A0A8823E9F52A81332727FD3095322F7F
:1055300022278981992787FD9095282B392B8091E7
:10554000140390911503281B390B30930F032093FC
:105550000E032C81332727FD3095322F22278B8194
:10556000992787FD9095282B392B809116039091D0
:105570001703281B390B3093110320931003212F9D
:10558000332727FD3095322F22278D81992787FDDC
:105590009095282B392B309313032093120394CF2B
:1055A0008A81992787FD9095982F8827298133270D
:1055B00027FD3095822B932B90930F0380930E033E
:1055C0008C81992787FD9095982F88272B813327E9
:1055D00027FD3095822B932B90931103809310031A
:1055E000CECF809112020E948D0A82E30E94BB0AF4
:1055F000809112028F5F0E94E10A0E94CD0A898386
:105600000E94CD0A8A830E94CD0A8B830E94CD0A14
:105610008C830E94CD0A8D830E94D70A182F8E8317
:105620000E94B30A80911A0A882309F446C029818E
:105630002695269530E08A81992787FD909500244C
:10564000969587950794969587950794982F802D22
:10565000282B392B30930F0320930E032B81269593
:10566000269530E08C81992787FD909500249695AA
:1056700087950794969587950794982F802D282BCA
:10568000392B3093110320931003212F332727FD4B
:1056900030950024369527950794369527950794DD
:1056A000322F202D8D818695869590E0282B392BE1
:1056B000309313032093120307CF29812695269553
:1056C00030E08A81992787FD9095002496958795EB
:1056D0000794969587950794982F802D282B392B22
:1056E0008091140390911503281B390B30930F03FD
:1056F00020930E032B812695269530E08C819927E7
:1057000087FD9095002496958795079496958795A3
:105710000794982F802D282B392B80911603909178
:105720001703281B390BADCFAF92BF92CF92DF92F8
:10573000EF92FF920F931F93CF93DF9310920C027F
:1057400010920D0210920E0280E062DE80910D0236
:1057500075DE80910E0288DE10922C0310922B03CE
:1057600081E080931A0A0E94DB0B609337037093E9
:1057700038038093390390933A0301C08BDE0E9473
:10578000DB0B20913703309138034091390350915E
:105790003A03621B730B840B950B615C7340804072
:1057A000904060F321E03CEF30931D0320931C03F5
:1057B0008FEF93E090931F0380931E033093210398
:1057C00020932003909323038093220310921903C4
:1057D0001092180310921B0310921A038091120367
:1057E0009091130397FD3BC48D970CF49EC31092C8
:1057F0000C028FEF80930D0280930E0280E008DE92
:1058000080910D021BDE80910E022EDE80E00E9450
:105810009A1380E00E94CD1322C0809118039091CA
:10582000190320910E0330910F03820F931F909361
:1058300019038093180380911A0390911B03209100
:10584000100330911103820F931F90931B038093D9
:105850001A034F5F5F4F50932C0340932B031ADEC4
:105860000E94192340912B0350912C034031510584
:10587000A4F28091180390911903959587959595B9
:105880008795959587959595879590931503809322
:10589000140380911A0390911B0395958795959514
:1058A0008795959587959595879590931703809300
:1058B000160381E080931A0A10922C0310922B0396
:1058C0001FEFC1E0D0E080912B0390912C03419712
:1058D00084F48091B902882309F023C180911A0AC7
:1058E000882309F405C180912B0390912C034197E3
:1058F00084F310920C0210920D028FEF80930E022F
:1059000080E086DD80910D0299DD80910E02ACDD94
:105910008091820290918302A0918402B0918502CD
:1059200054E0B695A795979587955A95D1F790939A
:105930006B0280936A028091860290918702A09107
:105940008802B091890244E0B695A795979587950E
:105950004A95D1F790936D0280936C0280918A02F0
:1059600090918B02A0918C02B0918D0234E0B6959B
:10597000A795979587953A95D1F790936F02809365
:105980006E0280918E0290918F02A0919002B09150
:10599000910224E0B695A795979587952A95D1F71A
:1059A0009093710280937002809192029091930281
:1059B000A0919402B091950204E0B695A7959795B1
:1059C00087950A95D1F79093730280937202809124
:1059D000960290919702A0919802B091990214E0DA
:1059E000B695A795979587951A95D1F790937502D7
:1059F0008093740280919A0290919B02A0919C02E4
:105A0000B0919D02F4E0B695A79597958795FA9584
:105A1000D1F7909377028093760280919E029091C5
:105A20009F02A091A002B091A102E4E0B695A795D3
:105A300097958795EA95D1F79093790280937802AC
:105A40008091A2029091A302A091A402B091A5021C
:105A500074E0B695A795979587957A95D1F720919B
:105A6000A6023091A7024091A8025091A90264E0D9
:105A700056954795379527956A95D1F7E090AA02F4
:105A8000F090AB020091AC021091AD0244E016958B
:105A90000795F794E7944A95D1F7A090AE02B0909D
:105AA000AF02C090B002D090B10214E0D694C79477
:105AB000B794A7941A95D1F78050924090937B02A7
:105AC00080937A022050324030937D0220937C02F2
:105AD00080E09EEFE80EF91EF0927F02E0927E02D7
